{
  "_format": "hh-sol-artifact-1",
  "contractName": "Library",
  "sourceName": "contracts/Library.sol",
  "abi": [
    {
      "anonymous": false,
      "inputs": [
        {
          "indexed": false,
          "internalType": "address",
          "name": "recipent",
          "type": "address"
        },
        {
          "indexed": false,
          "internalType": "uint256",
          "name": "bookId",
          "type": "uint256"
        }
      ],
      "name": "AddBook",
      "type": "event"
    },
    {
      "anonymous": false,
      "inputs": [
        {
          "indexed": false,
          "internalType": "uint256",
          "name": "bookId",
          "type": "uint256"
        },
        {
          "indexed": false,
          "internalType": "bool",
          "name": "finished",
          "type": "bool"
        }
      ],
      "name": "SetFinished",
      "type": "event"
    },
    {
      "inputs": [
        {
          "internalType": "string",
          "name": "name",
          "type": "string"
        },
        {
          "internalType": "uint16",
          "name": "year",
          "type": "uint16"
        },
        {
          "internalType": "string",
          "name": "author",
          "type": "string"
        },
        {
          "internalType": "bool",
          "name": "finished",
          "type": "bool"
        }
      ],
      "name": "addBook",
      "outputs": [],
      "stateMutability": "nonpayable",
      "type": "function"
    },
    {
      "inputs": [],
      "name": "getFinishedBooks",
      "outputs": [
        {
          "components": [
            {
              "internalType": "uint256",
              "name": "id",
              "type": "uint256"
            },
            {
              "internalType": "string",
              "name": "name",
              "type": "string"
            },
            {
              "internalType": "uint256",
              "name": "year",
              "type": "uint256"
            },
            {
              "internalType": "string",
              "name": "author",
              "type": "string"
            },
            {
              "internalType": "bool",
              "name": "finished",
              "type": "bool"
            }
          ],
          "internalType": "struct Library.Book[]",
          "name": "",
          "type": "tuple[]"
        }
      ],
      "stateMutability": "view",
      "type": "function"
    },
    {
      "inputs": [],
      "name": "getUnfinishedBooks",
      "outputs": [
        {
          "components": [
            {
              "internalType": "uint256",
              "name": "id",
              "type": "uint256"
            },
            {
              "internalType": "string",
              "name": "name",
              "type": "string"
            },
            {
              "internalType": "uint256",
              "name": "year",
              "type": "uint256"
            },
            {
              "internalType": "string",
              "name": "author",
              "type": "string"
            },
            {
              "internalType": "bool",
              "name": "finished",
              "type": "bool"
            }
          ],
          "internalType": "struct Library.Book[]",
          "name": "",
          "type": "tuple[]"
        }
      ],
      "stateMutability": "view",
      "type": "function"
    },
    {
      "inputs": [
        {
          "internalType": "uint256",
          "name": "bookId",
          "type": "uint256"
        },
        {
          "internalType": "bool",
          "name": "finished",
          "type": "bool"
        }
      ],
      "name": "setFinished",
      "outputs": [],
      "stateMutability": "nonpayable",
      "type": "function"
    }
  ],
  "bytecode": "0x608060405234801561001057600080fd5b5061102b806100206000396000f3fe608060405234801561001057600080fd5b506004361061004c5760003560e01c80636aa835a81461005157806376d9e5a01461006d578063c079766d1461008b578063f2bc01ff146100a7575b600080fd5b61006b60048036038101906100669190610763565b6100c5565b005b6100756101a6565b6040516100829190610990565b60405180910390f35b6100a560048036038101906100a09190610b21565b6101b7565b005b6100af61030c565b6040516100bc9190610990565b60405180910390f35b3373ffffffffffffffffffffffffffffffffffffffff166001600084815260200190815260200160002060009054906101000a900473ffffffffffffffffffffffffffffffffffffffff1673ffffffffffffffffffffffffffffffffffffffff16036101a25780600083815481106101405761013f610bc0565b5b906000526020600020906005020160040160006101000a81548160ff0219169083151502179055507fa4f349f92993cc89f62be8c4bead1bd7d76d2e9c4d05da59739c6e0dd75f042c8282604051610199929190610c0d565b60405180910390a15b5050565b60606101b2600161031d565b905090565b60008080549050905060006040518060a001604052808381526020018781526020018661ffff16815260200185815260200184151581525090806001815401808255809150506001900390600052602060002090600502016000909190919091506000820151816000015560208201518160010190816102379190610e42565b506040820151816002015560608201518160030190816102579190610e42565b5060808201518160040160006101000a81548160ff0219169083151502179055505050336001600083815260200190815260200160002060006101000a81548173ffffffffffffffffffffffffffffffffffffffff021916908373ffffffffffffffffffffffffffffffffffffffff1602179055507f10545577c692a22f651e69221c47ad4418e40434b36f4e2411bc54007aa8cbb933826040516102fd929190610f55565b60405180910390a15050505050565b6060610318600061031d565b905090565b60606000808054905067ffffffffffffffff81111561033f5761033e6109bc565b5b60405190808252806020026020018201604052801561037857816020015b6103656106b0565b81526020019060019003908161035d5790505b5090506000805b6000805490508110156105f4573373ffffffffffffffffffffffffffffffffffffffff166001600083815260200190815260200160002060009054906101000a900473ffffffffffffffffffffffffffffffffffffffff1673ffffffffffffffffffffffffffffffffffffffff1614801561042f57508415156000828154811061040c5761040b610bc0565b5b906000526020600020906005020160040160009054906101000a900460ff161515145b156105e1576000818154811061044857610447610bc0565b5b90600052602060002090600502016040518060a00160405290816000820154815260200160018201805461047b90610c65565b80601f01602080910402602001604051908101604052809291908181526020018280546104a790610c65565b80156104f45780601f106104c9576101008083540402835291602001916104f4565b820191906000526020600020905b8154815290600101906020018083116104d757829003601f168201915b505050505081526020016002820154815260200160038201805461051790610c65565b80601f016020809104026020016040519081016040528092919081815260200182805461054390610c65565b80156105905780601f1061056557610100808354040283529160200191610590565b820191906000526020600020905b81548152906001019060200180831161057357829003601f168201915b505050505081526020016004820160009054906101000a900460ff1615151515815250508383815181106105c7576105c6610bc0565b5b602002602001018190525081806105dd90610fad565b9250505b80806105ec90610fad565b91505061037f565b5060008167ffffffffffffffff811115610611576106106109bc565b5b60405190808252806020026020018201604052801561064a57816020015b6106376106b0565b81526020019060019003908161062f5790505b50905060005b828110156106a45783818151811061066b5761066a610bc0565b5b602002602001015182828151811061068657610685610bc0565b5b6020026020010181905250808061069c90610fad565b915050610650565b50809350505050919050565b6040518060a00160405280600081526020016060815260200160008152602001606081526020016000151581525090565b6000604051905090565b600080fd5b600080fd5b6000819050919050565b610708816106f5565b811461071357600080fd5b50565b600081359050610725816106ff565b92915050565b60008115159050919050565b6107408161072b565b811461074b57600080fd5b50565b60008135905061075d81610737565b92915050565b6000806040838503121561077a576107796106eb565b5b600061078885828601610716565b92505060206107998582860161074e565b9150509250929050565b600081519050919050565b600082825260208201905092915050565b6000819050602082019050919050565b6107d8816106f5565b82525050565b600081519050919050565b600082825260208201905092915050565b60005b838110156108185780820151818401526020810190506107fd565b60008484015250505050565b6000601f19601f8301169050919050565b6000610840826107de565b61084a81856107e9565b935061085a8185602086016107fa565b61086381610824565b840191505092915050565b6108778161072b565b82525050565b600060a08301600083015161089560008601826107cf565b50602083015184820360208601526108ad8282610835565b91505060408301516108c260408601826107cf565b50606083015184820360608601526108da8282610835565b91505060808301516108ef608086018261086e565b508091505092915050565b6000610906838361087d565b905092915050565b6000602082019050919050565b6000610926826107a3565b61093081856107ae565b935083602082028501610942856107bf565b8060005b8581101561097e578484038952815161095f85826108fa565b945061096a8361090e565b925060208a01995050600181019050610946565b50829750879550505050505092915050565b600060208201905081810360008301526109aa818461091b565b905092915050565b600080fd5b600080fd5b7f4e487b7100000000000000000000000000000000000000000000000000000000600052604160045260246000fd5b6109f482610824565b810181811067ffffffffffffffff82111715610a1357610a126109bc565b5b80604052505050565b6000610a266106e1565b9050610a3282826109eb565b919050565b600067ffffffffffffffff821115610a5257610a516109bc565b5b610a5b82610824565b9050602081019050919050565b82818337600083830152505050565b6000610a8a610a8584610a37565b610a1c565b905082815260208101848484011115610aa657610aa56109b7565b5b610ab1848285610a68565b509392505050565b600082601f830112610ace57610acd6109b2565b5b8135610ade848260208601610a77565b91505092915050565b600061ffff82169050919050565b610afe81610ae7565b8114610b0957600080fd5b50565b600081359050610b1b81610af5565b92915050565b60008060008060808587031215610b3b57610b3a6106eb565b5b600085013567ffffffffffffffff811115610b5957610b586106f0565b5b610b6587828801610ab9565b9450506020610b7687828801610b0c565b935050604085013567ffffffffffffffff811115610b9757610b966106f0565b5b610ba387828801610ab9565b9250506060610bb48782880161074e565b91505092959194509250565b7f4e487b7100000000000000000000000000000000000000000000000000000000600052603260045260246000fd5b610bf8816106f5565b82525050565b610c078161072b565b82525050565b6000604082019050610c226000830185610bef565b610c2f6020830184610bfe565b9392505050565b7f4e487b7100000000000000000000000000000000000000000000000000000000600052602260045260246000fd5b60006002820490506001821680610c7d57607f821691505b602082108103610c9057610c8f610c36565b5b50919050565b60008190508160005260206000209050919050565b60006020601f8301049050919050565b600082821b905092915050565b600060088302610cf87fffffffffffffffffffffffffffffffffffffffffffffffffffffffffffffffff82610cbb565b610d028683610cbb565b95508019841693508086168417925050509392505050565b6000819050919050565b6000610d3f610d3a610d35846106f5565b610d1a565b6106f5565b9050919050565b6000819050919050565b610d5983610d24565b610d6d610d6582610d46565b848454610cc8565b825550505050565b600090565b610d82610d75565b610d8d818484610d50565b505050565b5b81811015610db157610da6600082610d7a565b600181019050610d93565b5050565b601f821115610df657610dc781610c96565b610dd084610cab565b81016020851015610ddf578190505b610df3610deb85610cab565b830182610d92565b50505b505050565b600082821c905092915050565b6000610e1960001984600802610dfb565b1980831691505092915050565b6000610e328383610e08565b9150826002028217905092915050565b610e4b826107de565b67ffffffffffffffff811115610e6457610e636109bc565b5b610e6e8254610c65565b610e79828285610db5565b600060209050601f831160018114610eac5760008415610e9a578287015190505b610ea48582610e26565b865550610f0c565b601f198416610eba86610c96565b60005b82811015610ee257848901518255600182019150602085019450602081019050610ebd565b86831015610eff5784890151610efb601f891682610e08565b8355505b6001600288020188555050505b505050505050565b600073ffffffffffffffffffffffffffffffffffffffff82169050919050565b6000610f3f82610f14565b9050919050565b610f4f81610f34565b82525050565b6000604082019050610f6a6000830185610f46565b610f776020830184610bef565b9392505050565b7f4e487b7100000000000000000000000000000000000000000000000000000000600052601160045260246000fd5b6000610fb8826106f5565b91507fffffffffffffffffffffffffffffffffffffffffffffffffffffffffffffffff8203610fea57610fe9610f7e565b5b60018201905091905056fea264697066735822122092fa369437fc7e7b119cfcf324652e9f08d4cad403d1f44f3bbf9f09401b347564736f6c63430008110033",
  "linkReferences": {},
  "deployedLinkReferences": {}
}